S021000044656D6F7374726163696F6E5F556269646F74735F333238702E7372656376
S11300000C945D010C947A010C947A010C947A019D
S11300100C947A010C947A010C947A010C947A0170
S11300200C947A010C94C6020C947A010C947A0113
S11300300C947A010C947A010C947A010C947A0150
S11300400C947A010C947A010C947A010C947A0140
S11300500C947A010C947A010C947A010C947A0130
S11300600C947A010C947A014572726F7220656E59
S113007020736F6C696369747564206465206C65B2
S113008063747572612E2E2E0D0A000D0A00416EE6
S113009067756C6F20536572766F3A0056616C6FAA
S11300A072204F6274656E69646F2E2E2E0D0A00E5
S11300B05B7B227661726961626C65223A222573E8
S11300C0222C2276616C7565223A222564227D2CCD
S11300D07B227661726961626C65223A2225732201
S11300E02C2276616C7565223A222564227D5D0D91
S11300F00A0D0A0054656D703A25642048756D52E6
S11301003A25640D0A004745542025732048545469
S1130110502F312E310D0A486F73743A2025730D18
S11301200A436F6E74656E742D547970653A20615C
S113013070706C69636174696F6E2F6A736F6E0D92
S11301400A582D417574682D546F6B656E3A2025DD
S1130150730D0A0D0A00504F535420257320485440
S113016054502F312E310D0A486F73743A20257381
S11301700D0A436F6E74656E742D547970653A2060
S11301806170706C69636174696F6E2F6A736F6EEE
S11301903B20636861727365743D5554462D380D78
S11301A00A436F6E74656E742D4C656E6774683A9D
S11301B02025640D0A582D417574682D546F6B65A4
S11301C06E3A2025730D0A436F6E6E656374696F12
S11301D06E3A20436C6F73650D0A0D0A0041542B6F
S11301E043495053454E440D0A0041542B43495052
S11301F04D4F44453D310D0A0041542B4349505362
S1130200544152543D22544350222C222573222C13
S113021025730D0A0041542B4349504D55583D3028
S11302200D0A000D0A0049503A200041542B43495D
S11302304653520D0A0041540D0A000D0A002B2B9F
S11302402B000D0A0041542B43574A41503F0D0ADD
S11302500041540D0A000D0A002B2B2B0041542B96
S113026043574A41503D222573222C222573220DE7
S11302700A004E6F2068617920526564210D0A20BE
S1130280436F6E656374616E646F2E2E2E0D0A00CB
S11302900D0A00596120657374617320636F6E6584
S11302A0637461646F2061206C6120524544212C89
S11302B020004C6973746F0D0A0011241FBECFEF28
S11302C0D8E0DEBFCDBF17E0A0E0B1E0EAE3F9E19A
S11302D002C005900D92A035B107D9F727E0A0E53B
S11302E0B7E001C01D92A535B207E1F70E94990558
S11302F00C949B0C0C940000FC01908121E030E0F4
S113030002C0220F331F6A95E2F720952923208328
S11303100895FC01908121E030E002C0220F331FD8
S11303206A95E2F720952923208308950F931F935C
S1130330CF93DF938C01DC0112968C911297159662
S1130340ED91FC9116972081C1E0D0E0AE0102C08E
S1130350440F551F8A95E2F7CA01822B80831296B7
S11303606C9112978D919C910E9489018FE39CE975
S11303700197F1F700C00000D80112969C911297E2
S1130380ED91FC91808102C0CC0FDD1F9A95E2F7BC
S1130390C82BC083DF91CF911F910F910895CF9304
S11303A0DF93EC016A818D819E810E947C01EB8147
S11303B0FC8141E050E08A812081BA0102C0660FCD
S11303C0771F8A95E2F7CB018223A9F741E050E039
S11303D08A812081BA0102C0660F771F8A95E2F7ED
S11303E0CB018223A9F341E050E08A812081BA0144
S11303F002C0660F771F8A95E2F7CB018223A9F723
S1130400DF91CF910895CF93DF93FC0168E080E002
S113041041E050E0A381B48122819C91EA0102C0B1
S1130420CC0FDD1F2A95E2F79E012923A9F3D0E51D
S1130430DA95F1F72281A381B4819C91EA0102C08B
S1130440CC0FDD1F2A95E2F79E01292319F0880FAE
S1130450816001C0880F22819C91EA0102C0CC0F07
S1130460DD1F2A95E2F79E012923A9F7615091F631
S1130470DF91CF910895CF93DF93EC010E94960111
S1130480CE010E94CF01CE010E9403028F83CE01D0
S11304900E9403028887CE010E9403028987CE014D
S11304A00E9403028A87CE010E9403028B87DF9198
S11304B0CF91089520E035E1F894269A2E9805B05E
S11304C093E0232F2A95F1F780FB06F896958795FC
S11304D005B8B9F778940895CF93DF93EC01888138
S11304E0882331F021960E945A0289918111FBCF11
S11304F0DF91CF9108950F931F93CF93DF93CDB7DF
S1130500DEB7C456D1090FB6F894DEBF0FBECDBF17
S113051088E191E00E943B02E8E1F1E087811F92CB
S11305208F9381851F928F9384EF90E09F938F9395
S11305308E010F5F1F4F1F930F930E94B109C801D3
S11305400E946C020FB6F894DEBF0FBECDBFCC592B
S1130550DF4F0FB6F894DEBF0FBECDBFDF91CF9152
S11305601F910F910895CF93DF93EC01FC018491C7
S1130570882349F0FE01219684910E945A02FE01CB
S113058084918111F7CFDF91CF9108951F920F923B
S11305900FB60F9211248F939F93AF93BF938091C3
S11305A054078F5F80935407809154078230A9F4D5
S11305B08091500790915107A0915207B091530731
S11305C00196A11DB11D8093500790935107A093EC
S11305D05207B093530710925407BF91AF919F9164
S11305E08F910F900FBE0F901F9018958AB1846958
S11305F08AB90895E0EBF0E08081816A808382E02B
S11306008093B10081E0809370001092B20084B5B1
S1130610816A84BD85B5836085BD569A08958F929D
S11306209F92AF92BF92CF92DF92EF92FF920F937D
S11306301F93CF93DF93EC0188810E94220780905F
S1130640500790905107A0905207B09053074091E3
S11306505007509151076091520770915307FE0162
S1130660EB54FD4F80819181A281B381880D991D46
S1130670AA1DBB1D481759076A077B0760F138C0DC
S11306808FEFE81AF80A88810E941607F80181930F
S11306908F0188810E9455078111F2CFFE01EE0D72
S11306A0FF1DEB54FF4F10824091500750915107AA
S11306B06091520770915307F60180819181A28164
S11306C0B381880D991DAA1DBB1D481759076A07D8
S11306D07B0740F00DC0E12CF12C6E01FBE4CF1A36
S11306E0FDEFDF0A87010B541F4F0C0F1D1FD1CFE5
S11306F08091DF06882329F0CE018B549F4F0E94FE
S11307006C02DF91CF911F910F91FF90EF90DF90DA
S1130710CF90BF90AF909F908F9008958F929F92AB
S1130720AF92BF92CF92DF92EF92FF920F931F93FB
S1130730CF93DF93EC018090500790905107A090E5
S11307405207B090530788810E943A07409150079E
S1130750509151076091520770915307FE01EB5479
S1130760FD4F80819181A281B381880D991DAA1DBD
S1130770BB1D481759076A077B0760F138C08FEF24
S1130780E81AF80A88810E941607F80181938F01FC
S113079088810E9455078111F2CFFE01EE0DFF1DE5
S11307A0EB54FF4F108240915007509151076091D4
S11307B0520770915307F60180819181A281B38120
S11307C0880D991DAA1DBB1D481759076A077B0789
S11307D040F00DC0E12CF12C6E01FBE4CF1AFDEFCB
S11307E0DF0A87010B541F4F0C0F1D1FD1CF8091BF
S11307F0DF06882329F0CE018B549F4F0E946C02A0
S1130800DF91CF911F910F91FF90EF90DF90CF90E8
S1130810BF90AF909F908F900895EF92FF920F93A7
S11308201F93CF93DF93EC018C010B541F4F69E5A9
S113083072E088810E943A072FEF89E698E12150FF
S113084080409040E1F700C0000066E572E0CE0110
S11308500E948E0361E572E0CE010E948E0360EE79
S113086076E0C8010E946809892B09F780E991E0C4
S1130870A0E0B0E0FE01EB54FD4F80839183A2839E
S1130880B38365E472E0CE010E948E0366EE76E0E7
S1130890802F912F0E94680911E0009709F410E05D
S11308A02091DF06222331F00E946C0282E492E060
S11308B00E94B302CB54DD4F88EC90E0A0E0B0E09E
S11308C088839983AA83BB83812FDF91CF911F9162
S11308D00F91FF90EF900895CF92DF92EF92FF92E5
S11308E00F931F93CF93DF9300D0CDB7DEB78C0166
S11308F07C0125EBE20EF11C6EE372E0F8018081CD
S11309000E943A07FFEF29E688E1F1502040804039
S1130910E1F700C000006BE372E0C8010E948E039F
S113092066E372E0C8010E948E0360EE76E0C701C0
S11309300E946809892B01F76BE272E0C8010E94EA
S11309408E036EEE76E08E2D9F2D0E9468099A83A9
S11309508983AE014F5F5F4F65EF76E006960E9494
S11309608209035C1F4FBC01C8010E946109809188
S1130970DF06882359F086E292E00E94B302C801A0
S11309800E946C0283E292E00E94B3020F900F90E7
S1130990DF91CF911F910F91FF90EF90DF90CF9057
S11309A00895EF92FF920F931F93CF93DF93EC017F
S11309B0FC01EB54FD4F88EE93E0A0E0B0E08083AF
S11309C09183A283B383CE010E940D048823A9F0EE
S11309D08091DF06882361F083E992E00E94B302EC
S11309E0CE0101960E946C0280E992E00E94B3025B
S11309F0CE010E946C0421E049C08091DF06882367
S1130A0021F082E792E00E94B3027E014BE4E41AF3
S1130A104DEFF40A88EB9BE0A0E0B0E0F70180839F
S1130A209183A283B3838E010F5A1F4FCE014F9639
S1130A309F938F934E979F938F938DE592E09F930F
S1130A408F931F930F930E94B109B801CE010E94A6
S1130A500F0368EF76E0CE018B549F4F0E94680924
S1130A604CED55E060E070E0F70140835183628310
S1130A70738321E04DB75EB7485F5F4F0FB6F894BC
S1130A805EBF0FBE4DBF892B09F420E0822FDF919A
S1130A90CF911F910F91FF90EF9008950F931F93A3
S1130AA0CF93DF93EC01FC01EB54FD4F84EF91E015
S1130AB0A0E0B0E080839183A283B38365E172E018
S1130AC0CE010E948E038E010F5A1F4FCE01835E0A
S1130AD09C4F9F938F93845691099F938F9389EF93
S1130AE091E09F938F931F930F930E94B109B801D4
S1130AF0CE010E940F036AEE71E0CE010E948E03C4
S1130B008DED91E09F938F931F930F930E94B109F2
S1130B10B80188810E9422078DB79EB70C960FB644
S1130B20F8949EBF0FBE8DBFDF91CF911F910F919F
S1130B3008950E94F6020E94FA0268E070E080E0E4
S1130B400E9404077894C4E08BB18C278BB984E2AB
S1130B5091E00E94D1048823B9F35A9A82EB92E07F
S1130B600E94B30284E291E00E944E050F2EF8E148
S1130B70EF2EF1E0FF2EF02D80905007909051075A
S1130B80A0905207B0905307C0E0D1E088819981CA
S1130B90009721F4EE81FF81099518C04A815B8199
S1130BA06C817D8124013501441A550A660A770A4D
S1130BB0A0E0B0E0481659066A067B0638F0EE81DC
S1130BC0FF8109958A829B82AC82BD822896CE15CC
S1130BD0DF05E1F6D1CFEF92FF920F931F93CF93EE
S1130BE0DF93EC018C010F5D1B4FF8010190002095
S1130BF0E9F73197E01BF10B7C0189EDE81A8CEFE2
S1130C00F80ACE01835B9A4F9F938F93FF93EF93E0
S1130C10845992409F938F93C2969F938F9386E5B6
S1130C2091E09F938F93FF92EF920E94B1098DB749
S1130C309EB70C960FB6F8949EBF0FBE8DBF8091E1
S1130C40DF06813031F4C7010E946C02C8010E94A2
S1130C506C02B70188810E942207B80188810E9432
S1130C602207DF91CF911F910F91FF90EF9008958C
S1130C708BB180588BB9E8E1F1E087811F928F93A3
S1130C8081EC96E09F938F9381851F928F9383EAE3
S1130C9096E09F938F9380EB90E09F938F9385E4EE
S1130CA095E09F938F930E94B10984E291E00E94A2
S1130CB0EB058BB180588BB98DB79EB70C960FB6E8
S1130CC0F8949EBF0FBE8DBF08950F931F93CF93CB
S1130CD0DF93EC018C01095D1C4F835B9A4F9F935A
S1130CE08F93845992409F938F9387E097E09F93CB
S1130CF08F9386E091E09F938F931F930F930E94AD
S1130D00B1098DB79EB70A960FB6F8949EBF0FBE71
S1130D108DBF8091DF06813019F4C8010E946C02F6
S1130D20FE01EB54FD4F8CED95E0A0E0B0E0808334
S1130D309183A283B383B801CE010E940F03DF9194
S1130D40CF911F910F910895682F70E080E090E09B
S1130D500E94FB0725E137EC41EB5EE30E94890822
S1130D6020E030E04AE752E40E9460070E94F6085F
S1130D700E94CC0767BD08950F931F93CF93DF9311
S1130D8000D0CDB7DEB79BB180E189278BB984E26F
S1130D9091E00E94650667E477E089ED91E00E94A6
S1130DA068099A838983892B01F18CE990E00E9478
S1130DB0B30289819A81AE014F5F5F4F6DE477E0A2
S1130DC006960E9482098C018EE890E00E94B3028C
S1130DD0C8010E946C028BE890E00E94B302C80133
S1130DE00E9443090E94A40604C088E690E00E9481
S1130DF0B3029BB180E189278BB90F900F90DF91EB
S1130E00CF911F910F910895519A509881110DC05F
S1130E1082E08093C00088E18093C10086E08093E3
S1130E20C2007093C5006093C4000895811108C086
S1130E30E0ECF0E080818823ECF78091C60008950F
S1130E4080E00895CF93DF93811111C0FB0190815D
S1130E50992369F0DB011196E0ECF0E0C6ECD0E0F8
S1130E60808185FFFDCF98839D919111F9CFDF910A
S1130E70CF910895CF93DF93811114C0FB01849126
S1130E80882381F0A0ECB0E0C6ECD0E0FB018C91AB
S1130E9085FFFDCF6F5F7F4FE491E883FB01849171
S1130EA08111F4CFDF91CF910895811106C0809113
S1130EB0C000881F8827881F089580E0089550582F
S1130EC0BB27AA270E9477070C944F080E94410869
S1130ED038F00E94480820F039F49F3F19F426F4B2
S1130EE00C943E080EF4E095E7FB0C943808E92FC7
S1130EF00E94600858F3BA176207730784079507BE
S1130F0020F079F4A6F50C9482080EF4E0950B2EEB
S1130F10BA2FA02D0B01B90190010C01CA01A00147
S1130F201124FF27591B99F0593F50F4503E68F1A2
S1130F301A16F040A22F232F342F4427585FF3CFE3
S1130F40469537952795A795F0405395C9F77EF4B4
S1130F501F16BA0B620B730B840BBAF09150A1F0FD
S1130F60FF0FBB1F661F771F881FC2F70EC0BA0F83
S1130F70621F731F841F48F4879577956795B7950B
S1130F80F7959E3F08F0B0CF9395880F08F0992706
S1130F90EE0F9795879508950E94680888F09F57EB
S1130FA098F0B92F9927B751B0F0E1F0660F771F89
S1130FB0881F991F1AF0BA95C9F714C0B13091F07F
S1130FC00E948208B1E008950C948208672F782F5C
S1130FD08827B85F39F0B93FCCF386957795679544
S1130FE0B395D9F73EF490958095709561957F4FB0
S1130FF08F4F9F4F0895E89409C097FB3EF4909556
S11310008095709561957F4F8F4F9F4F9923A9F0DD
S1131010F92F96E9BB279395F6958795779567956C
S1131020B795F111F8CFFAF4BB0F11F460FF1BC0B0
S11310306F5F7F4F8F4F9F4F16C0882311F096E943
S113104011C0772321F09EE8872F762F05C06623F1
S113105071F096E8862F70E060E02AF09A95660FAA
S1131060771F881FDAF7880F9695879597F9089563
S113107097F99F6780E870E060E008959FEF80EC47
S1131080089500240A9416161706180609060895EA
S113109000240A9412161306140605060895092E50
S11310A00394000C11F4882352F0BB0F40F4BF2BBF
S11310B011F460FF04C06F5F7F4F8F4F9F4F0895FF
S11310C057FD9058440F551F59F05F3F71F04795F5
S11310D0880F97FB991F61F09F3F79F087950895DA
S11310E0121613061406551FF2CF4695F1DF08C0F9
S11310F0161617061806991FF1CF86957105610516
S113110008940895E894BB2766277727CB0197F9BD
S113111008950E949C080C944F080E94410838F0DE
S11311200E94480820F0952311F00C9438080C9480
S11311303E0811240C9483080E94600870F3959F64
S1131140C1F3950F50E0551F629FF001729FBB27BA
S1131150F00DB11D639FAA27F00DB11DAA1F649F56
S11311606627B00DA11D661F829F2227B00DA11D09
S1131170621F739FB00DA11D621F839FA00D611D8F
S1131180221F749F3327A00D611D231F849F600DB0
S1131190211D822F762F6A2F11249F5750409AF0D9
S11311A0F1F088234AF0EE0FFF1FBB1F661F771F65
S11311B0881F91505040A9F79E3F510580F00C9430
S11311C038080C9483085F3FE4F3983ED4F3869583
S11311D077956795B795F795E7959F5FC1F7FE2BD0
S11311E0880F911D9695879597F908950E94680830
S11311F0E8F09E37E8F09639B8F49E3848F4672F43
S1131200782F8827985FF9CF86957795679593957A
S11312109539D0F3B62FB1706B0F711D811D20F479
S113122087957795679593950C941A090C943509CD
S11312300C948308882371F4772321F09850872B2A
S1131240762F07C0662311F499270DC09051862B81
S113125070E060E02AF09A95660F771F881FDAF72E
S1131260880F9695879597F908959F3F31F091508F
S113127020F4879577956795B795880F911D969576
S1131280879597F90895FC0188279927E894219177
S11312902032E9F3293010F02E30C8F32B3241F01C
S11312A02D3239F4689404C00E94A909820F911D5B
S11312B0219120532A30C0F31EF4909581959F4FBD
S11312C00895FB01DC0101900D920020E1F70895DF
S11312D0FB0151915523A9F0BF01DC014D91451744
S11312E04111E1F759F4CD010190002049F04D91ED
S11312F040154111C9F3FB014111EFCF81E090E0AA
S113130001970895FA01A191B081009719F41097FB
S1131310E1F0CD01DC01CD010D90002011F4C001FC
S113132013C0FB012191222319F02015D9F7F3CF23
S1131330FB012191201519F41E92119606C0222357
S1131340C1F70D900020A1F7D001FA01A193B08359
S113135008957AE0979F902D879F802D910D1124F9
S11313600895AEE0B0E0E7EBF9E00C94720C0D895F
S11313701E898EE08C831A8309838FEF9FE79E83F7
S11313808D83AE01475E5F4F6F89788DCE010196E4
S11313900E94D309EF81F885E00FF11F10822E9689
S11313A0E4E00C948E0CABE0B0E0E9EDF9E00C94D1
S11313B0640C6C017B018A01FC0117821682838113
S11313C081FFCCC1CE0101963C01F6019381F70166
S11313D093FD859193FF81917F01882309F4BAC11C
S11313E0853239F493FD859193FF81917F01853294
S11313F029F4B60190E00E94CA0BE7CF912C212C6E
S1131400312CFFE1F315D8F08B3279F038F48032C7
S113141079F08332A1F4232D20611DC08D3261F057
S1131420803369F4232D216016C0832D8260382E09
S1131430E32DE4603E2E2AC0F32DF8601DC037FC76
S11314402DC020ED280F2A3040F08E32B9F436FC3E
S113145081C1232D2064322E19C036FE06C08AE0D5
S1131460989E200D1124922E11C0EAE02E9E200D8C
S11314701124222EF32DF0623F2E08C08C3621F465
S1131480832D8068382E02C0883641F4F70193FD1D
S1131490859193FF81917F018111B3CF982F9F7D17
S11314A09554933028F40C5F1F4F9FE399830DC02C
S11314B0833631F0833771F0833509F059C021C088
S11314C0F801808189830E5F1F4F88248394912CB7
S11314D0530113C02801F2E04F0E511CF801A08003
S11314E0B18036FE03C0692D70E002C06FEF7FEF5C
S11314F0C5010E94BF0B4C018201F32DFF773F2EE3
S113150016C0280122E0420E511CF801A080B180CF
S113151036FE03C0692D70E002C06FEF7FEFC50196
S11315200E94B40B4C01F32DF0683F2E820133FC72
S11315301BC0822D90E088169906B0F4B60180E2B3
S113154090E00E94CA0B2A94F4CFF50137FC8591F0
S113155037FE81915F01B60190E00E94CA0B211011
S11315602A9421E0821A91088114910471F7E8C049
S1131570843611F0893641F5F80137FE07C06081E1
S11315807181828193810C5F1F4F08C060817181DA
S1131590072E000C880B990B0E5F1F4FF32DFF765F
S11315A03F2E97FF09C090958095709561957F4F68
S11315B08F4F9F4FF0683F2E2AE030E0A3010E9436
S11315C0060C882E861845C0853731F4232D2F7ECE
S11315D0B22E2AE030E025C0932D997FB92E8F36A4
S11315E0C1F018F4883579F0B5C0803719F0883720
S11315F021F0B0C0E92FE061BE2EB4FE0DC0FB2D7A
S1131600F460BF2E09C034FE0AC0292F2660B22E12
S113161006C028E030E005C020E130E002C020E14F
S113162032E0F801B7FE07C0608171818281938145
S11316300C5F1F4F06C06081718180E090E00E5FF7
S11316401F4FA3010E94060C882E8618FB2DFF77DE
S11316503F2E36FE0DC0232D2E7FA22E891458F462
S113166034FE0BC032FC09C0832D8E7EA82E05C02B
S1131670B82CA32C03C0B82C01C0B92CA4FE0FC0F5
S1131680FE01E80DF11D8081803321F49A2D997EAD
S1131690A92E09C0A2FE06C0B394B39404C08A2D37
S11316A0867809F0B394A3FC11C0A0FE06C0B2145E
S11316B088F4280C922C9B180EC0B21460F4B60166
S11316C080E290E00E94CA0BB394F7CFB21418F4EE
S11316D02B1802C0982C212CA4FE10C0B60180E364
S11316E090E00E94CA0BA2FE17C0A1FC03C088E7C9
S11316F090E002C088E590E0B6010CC08A2D86789F
S113170059F0A1FE02C08BE201C080E2A7FC8DE289
S1131710B60190E00E94CA0B891438F4B60180E344
S113172090E00E94CA0B9A94F7CF8A94F301E80DD3
S1131730F11D8081B60190E00E94CA0B8110F5CFA3
S1131740222009F442CEB60180E290E00E94CA0B46
S11317502A94F6CFF6018681978102C08FEF9FEF1E
S11317602B96E2E10C94800CFC01059061507040D2
S11317700110D8F7809590958E0F9F1F0895FC0156
S11317806150704001900110D8F7809590958E0FAC
S11317909F1F08950F931F93CF93DF93FB01238122
S11317A021FD03C08FEF9FEF2CC022FF16C046819E
S11317B05781248135814217530744F4A081B181B4
S11317C09D012F5F3F4F318320838C932681378186
S11317D02F5F3F4F3783268314C08B01EC01FB013D
S11317E00084F185E02D0995892BE1F6D801169640
S11317F08D919C911797019617969C938E931697AB
S1131800CE01DF91CF911F910F910895FA01AA277C
S1131810283051F1203181F1E8946F936E7F6E5F2F
S11318207F4F8F4F9F4FAF4FB1E03ED0B4E03CD0DD
S1131830670F781F891F9A1FA11D680F791F8A1FC0
S1131840911DA11D6A0F711D811D911DA11D20D027
S113185009F468943F912AE0269F11243019305DE1
S11318603193DEF6CF010895462F4770405D4193D2
S1131870B3E00FD0C9F7F6CF462F4F70405D4A331F
S113188018F0495D31FD4052419302D0A9F7EACFE7
S1131890B4E0A6959795879577956795BA95C9F716
S11318A000976105710508959B01AC010A2E069409
S11318B05795479537952795BA95C9F7620F731FC2
S11318C0841F951FA01D08952F923F924F925F92FF
S11318D06F927F928F929F92AF92BF92CF92DF923C
S11318E0EF92FF920F931F93CF93DF93CDB7DEB7A1
S11318F0CA1BDB0B0FB6F894DEBF0FBECDBF099435
S11319002A88398848885F846E847D848C849B848B
S1131910AA84B984C884DF80EE80FD800C811B8199
S1131920AA81B981CE0FD11D0FB6F894DEBF0FBEC8
S10D1930CDBFED010895F894FFCF38
S113193AF401000000007B02E80300000000BC067A
S113194A8813000000003806250000230024000044
S113195A00000000007C42616E656761732D526F5E
S113196A6A61737C50332D5034000000000000007B
S113197A000000656C5F6261746F5F6D616C6F3942
S113198A3300000000000000000000000000000016
S113199A0000000000000000000000000000000039
S11319AA0000000000000000000000000000000029
S11319BA0000000000000000000000000000000019
S11319CA0000000000000000000000000000000009
S11319DA00000000000000000000000000000000F9
S11319EA00000000000000000000000000000000E9
S11319FA00000000000000000000000000000000D9
S1131A0A00000000000000000020000000000000A8
S1131A1A00000000000000000000000000000000B8
S1131A2A00000000000000000000000000000000A8
S1131A3A0000000000000000000000000000000098
S1131A4A0000000000000000000000000000000088
S1131A5A0000000000000000000000000000000078
S1131A6A0000000000000000000000000000000068
S1131A7A0000000000000000000000000000000058
S1131A8A0000000000000000000000000000000048
S1131A9A0000000000000000000000000000000038
S1131AAA0000000000000000000000000000000028
S1131ABA0000000000000000000000000000000018
S1131ACA0000000000000000000000000000000008
S1131ADA00000000000000000000000000000000F8
S1131AEA00000000000000000000000000000000E8
S1131AFA00000000000000000000000000000000D8
S1131B0A00000000000000000000000000000000C7
S1131B1A00000000000000000000000000000000B7
S1131B2A00000000000000000000000000000000A7
S1131B3A0000000000000000000000000000000097
S1131B4A0000000000000000000000000000000087
S1131B5A0000000000000000000000000000000077
S1131B6A0000000000000000000000000000000067
S1131B7A0000000000000000000000000000000057
S1131B8A0000000000000000000000000000000047
S1131B9A0000000000000000000000000000000037
S1131BAA0000000000000000000000000000000027
S1131BBA0000000000000000000000000000000017
S1131BCA0000000000000000000000000000000007
S1131BDA00000000000000000000000000000000F7
S1131BEA00000000000000000000000000000000E7
S1131BFA00000000000000000000000000000000D7
S1131C0A000000000000000000DC050000746869A0
S1131C1A6E67732E756269646F74732E636F6D00D9
S1131C2A00000000000000000000000000000000A6
S1131C3A0000000000000000000000000000002F67
S1131C4A6170692F76312E362F636F6C6C656374FD
S1131C5A696F6E732F76616C7565730000000000FE
S1131C6A0000000000000000000000000000000066
S1131C7A00383000000000000000000000000000EE
S1131C8A0000000000000000000000000000000046
S1131C9A0000000000000000000000000000000036
S1131CAA0000000000000000000000000000000026
S1131CBA0000000000000000000000000000000016
S1131EAA00386466467544347451585441717364F5
S1131EBA7256706E4E677A6641657662577076001E
S1131ECA0000000000000000000000000000000004
S1131EDA0000003563636136316236633033663934
S1131EEA373431313136643461383000000000004F
S1131EFA003563636136316462633033663937347B
S1131F0A3066313731306538350000000000000191
S1131F1A4552524F52002B43574A41503A005354A8
S1131F2A4149502C002222005749464920434F4E2A
S1131F3A4E4543544544002F6170692F76312E363D
S1131F4A2F7661726961626C65732F3563636136DA
S1131F5A3165666330336639373430663137313048
S1131F6A6539372F76616C7565733F706167655F94
S1131F7A73697A653D310076616C7565003A7D0056
S9030000FC
